{
  "contractName": "SolidityDrive",
  "abi": [
    {
      "constant": false,
      "inputs": [
        {
          "name": "_hash",
          "type": "string"
        },
        {
          "name": "_fileName",
          "type": "string"
        },
        {
          "name": "_fileType",
          "type": "string"
        },
        {
          "name": "_date",
          "type": "uint256"
        }
      ],
      "name": "add",
      "outputs": [],
      "payable": false,
      "stateMutability": "nonpayable",
      "type": "function",
      "signature": "0x3f647a97"
    },
    {
      "constant": true,
      "inputs": [
        {
          "name": "_index",
          "type": "uint256"
        }
      ],
      "name": "getFile",
      "outputs": [
        {
          "name": "",
          "type": "string"
        },
        {
          "name": "",
          "type": "string"
        },
        {
          "name": "",
          "type": "string"
        },
        {
          "name": "",
          "type": "uint256"
        }
      ],
      "payable": false,
      "stateMutability": "view",
      "type": "function",
      "signature": "0x2bfda313"
    },
    {
      "constant": true,
      "inputs": [],
      "name": "getLength",
      "outputs": [
        {
          "name": "",
          "type": "uint256"
        }
      ],
      "payable": false,
      "stateMutability": "view",
      "type": "function",
      "signature": "0xbe1c766b"
    }
  ],
  "bytecode": "0x608060405234801561001057600080fd5b506108e5806100206000396000f3fe608060405260043610610057576000357c0100000000000000000000000000000000000000000000000000000000900463ffffffff1680632bfda3131461005c5780633f647a97146101ef578063be1c766b146103ef575b600080fd5b34801561006857600080fd5b506100956004803603602081101561007f57600080fd5b810190808035906020019092919050505061041a565b60405180806020018060200180602001858152602001848103845288818151815260200191508051906020019080838360005b838110156100e35780820151818401526020810190506100c8565b50505050905090810190601f1680156101105780820380516001836020036101000a031916815260200191505b50848103835287818151815260200191508051906020019080838360005b8381101561014957808201518184015260208101905061012e565b50505050905090810190601f1680156101765780820380516001836020036101000a031916815260200191505b50848103825286818151815260200191508051906020019080838360005b838110156101af578082015181840152602081019050610194565b50505050905090810190601f1680156101dc5780820380516001836020036101000a031916815260200191505b5097505050505050505060405180910390f35b3480156101fb57600080fd5b506103ed6004803603608081101561021257600080fd5b810190808035906020019064010000000081111561022f57600080fd5b82018360208201111561024157600080fd5b8035906020019184600183028401116401000000008311171561026357600080fd5b91908080601f016020809104026020016040519081016040528093929190818152602001838380828437600081840152601f19601f820116905080830192505050505050509192919290803590602001906401000000008111156102c657600080fd5b8201836020820111156102d857600080fd5b803590602001918460018302840111640100000000831117156102fa57600080fd5b91908080601f016020809104026020016040519081016040528093929190818152602001838380828437600081840152601f19601f8201169050808301925050505050505091929192908035906020019064010000000081111561035d57600080fd5b82018360208201111561036f57600080fd5b8035906020019184600183028401116401000000008311171561039157600080fd5b91908080601f016020809104026020016040519081016040528093929190818152602001838380828437600081840152601f19601f820116905080830192505050505050509192919290803590602001909291905050506106ad565b005b3480156103fb57600080fd5b506104046107a2565b6040518082815260200191505060405180910390f35b606080606060006104296107eb565b6000803373ffffffffffffffffffffffffffffffffffffffff1673ffffffffffffffffffffffffffffffffffffffff1681526020019081526020016000208681548110151561047457fe5b906000526020600020906004020160806040519081016040529081600082018054600181600116156101000203166002900480601f0160208091040260200160405190810160405280929190818152602001828054600181600116156101000203166002900480156105275780601f106104fc57610100808354040283529160200191610527565b820191906000526020600020905b81548152906001019060200180831161050a57829003601f168201915b50505050508152602001600182018054600181600116156101000203166002900480601f0160208091040260200160405190810160405280929190818152602001828054600181600116156101000203166002900480156105c95780601f1061059e576101008083540402835291602001916105c9565b820191906000526020600020905b8154815290600101906020018083116105ac57829003601f168201915b50505050508152602001600282018054600181600116156101000203166002900480601f01602080910402602001604051908101604052809291908181526020018280546001816001161561010002031660029004801561066b5780601f106106405761010080835404028352916020019161066b565b820191906000526020600020905b81548152906001019060200180831161064e57829003601f168201915b50505050508152602001600382015481525050905080600001518160200151826040015183606001518393508292508191509450945094509450509193509193565b6000803373ffffffffffffffffffffffffffffffffffffffff1673ffffffffffffffffffffffffffffffffffffffff16815260200190815260200160002060806040519081016040528086815260200185815260200184815260200183815250908060018154018082558091505090600182039060005260206000209060040201600090919290919091506000820151816000019080519060200190610754929190610814565b506020820151816001019080519060200190610771929190610814565b50604082015181600201908051906020019061078e929190610814565b506060820151816003015550505050505050565b60008060003373ffffffffffffffffffffffffffffffffffffffff1673ffffffffffffffffffffffffffffffffffffffff16815260200190815260200160002080549050905090565b608060405190810160405280606081526020016060815260200160608152602001600081525090565b828054600181600116156101000203166002900490600052602060002090601f016020900481019282601f1061085557805160ff1916838001178555610883565b82800160010185558215610883579182015b82811115610882578251825591602001919060010190610867565b5b5090506108909190610894565b5090565b6108b691905b808211156108b257600081600090555060010161089a565b5090565b9056fea165627a7a72305820c6fc6d2b55849f8aca9622a29346d6c12c4be594fb72edeceab3751acf23ae1e0029",
  "source": "pragma solidity ^0.5.0;\r\n\r\ncontract SolidityDrive {\r\n    struct File {\r\n        string hash;\r\n        string fileName;\r\n        string fileType;\r\n        uint date;\r\n    }\r\n\r\n    mapping(address => File[]) files;\r\n\r\n    function add(string memory _hash, string memory _fileName, string memory _fileType, uint _date) public {\r\n        files[msg.sender].push(File({hash: _hash, fileName: _fileName, fileType: _fileType, date: _date}));\r\n    }\r\n\r\n    function getFile(uint _index) public view returns(string memory, string memory, string memory, uint) {\r\n        File memory file = files[msg.sender][_index];\r\n        return (file.hash, file.fileName, file.fileType, file.date);\r\n    }\r\n\r\n    function getLength() public view returns(uint) {\r\n        return files[msg.sender].length;\r\n    }\r\n}",
  "sourcePath": "F:/solidity-drive-app/contracts/SolidityDrive.sol",
  "compiler": {
    "name": "solc",
    "version": "0.5.0+commit.1d4f565a.Emscripten.clang"
  },
  "schemaVersion": "3.0.3",
  "updatedAt": "2019-03-26T09:32:47.741Z",
  "devdoc": {
    "methods": {}
  },
  "userdoc": {
    "methods": {}
  }
}